{"contracts/EHealthTransaction.sol":{"EHealthTransaction":{"abi":[{"anonymous":false,"inputs":[{"indexed":false,"internalType":"uint256","name":"demandId","type":"uint256"},{"indexed":false,"internalType":"string","name":"hospitalName","type":"string"},{"indexed":false,"internalType":"string","name":"patientName","type":"string"}],"name":"DemandCreated","type":"event"},{"anonymous":false,"inputs":[{"indexed":false,"internalType":"uint256","name":"demandId","type":"uint256"}],"name":"DemandDeleted","type":"event"},{"anonymous":false,"inputs":[{"indexed":false,"internalType":"uint256","name":"demandId","type":"uint256"},{"indexed":false,"internalType":"string","name":"pathologyReportHash","type":"string"}],"name":"LabApproved","type":"event"},{"anonymous":false,"inputs":[{"indexed":false,"internalType":"uint256","name":"demandId","type":"uint256"},{"indexed":false,"internalType":"string","name":"pharmacyReportHash","type":"string"}],"name":"PharmacyApproved","type":"event"},{"inputs":[{"internalType":"uint256","name":"_demandId","type":"uint256"},{"internalType":"string","name":"_fileHash","type":"string"}],"name":"approveLab","outputs":[],"stateMutability":"nonpayable","type":"function"},{"inputs":[{"internalType":"uint256","name":"_demandId","type":"uint256"},{"internalType":"string","name":"_fileHash","type":"string"}],"name":"approvePharmacy","outputs":[],"stateMutability":"nonpayable","type":"function"},{"inputs":[{"internalType":"string","name":"_hospitalName","type":"string"},{"internalType":"string","name":"_patientName","type":"string"},{"internalType":"string","name":"_dateofbirth","type":"string"},{"internalType":"string","name":"_age","type":"string"},{"internalType":"string","name":"_pharmacyUsername","type":"string"},{"internalType":"string","name":"_pathologyLabUsername","type":"string"},{"internalType":"string","name":"_prescribedMedicines","type":"string"},{"internalType":"string","name":"_labTests","type":"string"}],"name":"createDemand","outputs":[],"stateMutability":"nonpayable","type":"function"},{"inputs":[{"internalType":"uint256","name":"_demandId","type":"uint256"}],"name":"deleteDemand","outputs":[],"stateMutability":"nonpayable","type":"function"},{"inputs":[],"name":"demandCount","outputs":[{"internalType":"uint256","name":"","type":"uint256"}],"stateMutability":"view","type":"function"},{"inputs":[{"internalType":"uint256","name":"","type":"uint256"}],"name":"demands","outputs":[{"internalType":"string","name":"hospitalName","type":"string"},{"internalType":"string","name":"patientName","type":"string"},{"internalType":"string","name":"dateofbirth","type":"string"},{"internalType":"string","name":"age","type":"string"},{"internalType":"string","name":"pharmacyUsername","type":"string"},{"internalType":"string","name":"pathologyLabUsername","type":"string"},{"internalType":"string","name":"prescribedMedicines","type":"string"},{"internalType":"string","name":"labTests","type":"string"},{"internalType":"bool","name":"isPharmacyApproved","type":"bool"},{"internalType":"bool","name":"isLabApproved","type":"bool"},{"internalType":"string","name":"pharmacyReportHash","type":"string"},{"internalType":"string","name":"pathologyReportHash","type":"string"},{"internalType":"bool","name":"exists","type":"bool"}],"stateMutability":"view","type":"function"}],"evm":{"bytecode":{"linkReferences":{},"object":"6080806040523461001657611635908161001c8239f35b600080fdfe608080604052600436101561001357600080fd5b60003560e01c90816303b2bf8e1461135b575080635575e661146106225780639818268e1461049e5780639a2fe666146102d4578063f1bf95fb146101eb5763f62de8281461006157600080fd5b346101e65760203660031901126101e6576004356000526000602052604060002061008b81611474565b61009760018301611474565b916100a460028201611474565b906100b160038201611474565b6100bd60048301611474565b6100c960058401611474565b6100d560068501611474565b6100e160078601611474565b91600886015493600987016100f590611474565b95610102600a8901611474565b97600b015460ff16986040519b8c9b8c6101a08091528d016101239161151a565b8c810360208e01526101349161151a565b8b810360408d01526101459161151a565b8a810360608c01526101569161151a565b89810360808b01526101679161151a565b88810360a08a01526101789161151a565b87810360c08901526101899161151a565b86810360e088015261019a9161151a565b9060ff8116151561010087015260081c60ff1615156101208601528481036101408601526101c79161151a565b8381036101608501526101d99161151a565b9015156101808301520390f35b600080fd5b346101e65760203660031901126101e6577f1db773fe7b06efab51c674941614102d157a466a118cc9cf6256665b3be96ec46020600435806000526000825261023e60ff600b6040600020015416611571565b80600052600082526000600b60408220610257816115b6565b610263600182016115b6565b61026f600282016115b6565b61027b600382016115b6565b610287600482016115b6565b610293600582016115b6565b61029f600682016115b6565b6102ab600782016115b6565b8260088201556102bd600982016115b6565b6102c9600a82016115b6565b0155604051908152a1005b346101e6576102e236611408565b90806000526020916000835261030260ff600b6040600020015416611571565b81600052600083526040600020600960088201916001928360ff1982541617905501908251906001600160401b03821161048857610340835461143a565b601f811161044d575b5085601f83116001146103c2579180806103b295937f509e0d561bd3b1cce99c775f2bba803d803011f9a476f578878fa1eae175f1c2999897956000936103b7575b501b916000199060031b1c19161790555b604080519485948552840152604083019061151a565b0390a1005b86015192508a61038b565b601f9291921982169084600052876000209160005b81811061043857509183916103b296947f509e0d561bd3b1cce99c775f2bba803d803011f9a476f578878fa1eae175f1c29a999896941061041f575b5050811b01905561039c565b85015160001960f88460031b161c191690558880610413565b878301518455928501929189019189016103d7565b610478908460005287600020601f850160051c81019189861061047e575b601f0160051c019061155a565b86610349565b909150819061046b565b634e487b7160e01b600052604160045260246000fd5b346101e6576104ac36611408565b9080600052602090600082526104cc60ff600b6040600020015416611571565b8060005260008252600a60406000206008810161010061ff0019825416179055019280516001600160401b03811161048857610508855461143a565b601f81116105f2575b5083601f82116001146105835794816103b293927f530455f222b8bb0f4ebe2433ce880e5e426ced50ab5b2f0c9cbd72d278828a7097600091610578575b508160011b916000199060031b1c1916179055604080519485948552840152604083019061151a565b90508301518861054f565b601f1982169086600052856000209160005b8181106105db5750927f530455f222b8bb0f4ebe2433ce880e5e426ced50ab5b2f0c9cbd72d278828a709792600192826103b297961061041f575050811b01905561039c565b919287600181928689015181550194019201610595565b61061c908660005285600020601f840160051c81019187851061047e57601f0160051c019061155a565b85610511565b346101e6576101003660031901126101e6576004356001600160401b0381116101e6576106539036906004016113b2565b6024356001600160401b0381116101e6576106729036906004016113b2565b906044356001600160401b0381116101e6576106929036906004016113b2565b916064356001600160401b0381116101e6576106b29036906004016113b2565b926084356001600160401b0381116101e6576106d29036906004016113b2565b60a4356001600160401b0381116101e6576106f19036906004016113b2565b60c4356001600160401b0381116101e6576107109036906004016113b2565b60e4356001600160401b0381116101e65761072f9036906004016113b2565b91600154936000198514611345576001850160015560405198896101a08101106001600160401b036101a08c011117610488576001966101a08b01604052898b528860208c015260408b015260608a0152608089015260a088015260c087015260e0860152600061010086015260006101208601526040516107b081611376565b600081526101408601526040516107c681611376565b600081526101608601528161018086015201600052600060205260406000209280518051906001600160401b038211610488578190610805875461143a565b601f8111611313575b50602090601f83116001146112a75760009261129c575b50508160011b916000199060031b1c19161784555b60208101518051906001600160401b03821161048857819061085f600188015461143a565b601f8111611267575b50602090601f83116001146111f5576000926111ea575b50508160011b916000199060031b1c19161760018501555b60408101518051906001600160401b0382116104885781906108bc600288015461143a565b601f81116111b5575b50602090601f831160011461114357600092611138575b50508160011b916000199060031b1c19161760028501555b60608101518051906001600160401b038211610488578190610919600388015461143a565b601f8111611103575b50602090601f831160011461109157600092611086575b50508160011b916000199060031b1c19161760038501555b60808101518051906001600160401b038211610488578190610976600488015461143a565b601f8111611051575b50602090601f8311600114610fdf57600092610fd4575b50508160011b916000199060031b1c19161760048501555b60a08101518051906001600160401b0382116104885781906109d3600588015461143a565b601f8111610f9f575b50602090601f8311600114610f2d57600092610f22575b50508160011b916000199060031b1c19161760058501555b60c08101518051906001600160401b038211610488578190610a30600688015461143a565b601f8111610eed575b50602090601f8311600114610e7b57600092610e70575b50508160011b916000199060031b1c19161760068501555b60e08101518051906001600160401b038211610488578190610a8d600788015461143a565b601f8111610e3b575b50602090601f8311600114610dc957600092610dbe575b50508160011b916000199060031b1c19161760078501555b60088401610ae66101008301511515829060ff801983541691151516179055565b610120820151815461ff00191690151560081b61ff00161790556101408101518051906001600160401b038211610488578190610b26600988015461143a565b601f8111610d89575b50602090601f8311600114610d1757600092610d0c575b50508160011b916000199060031b1c19161760098501555b6101608101518051906001600160401b03821161048857610b82600a87015461143a565b601f8111610cd7575b50602090601f8311600114610c3c57610c0093837face89e3f00bbd92defd5cdde93b9b5ba72aa99e0e4d76ebbdf6e08ac9feefa9c9894600b9461018094600092610c31575b50508160011b916000199060031b1c191617600a8501555b0151151591019060ff801983541691151516179055565b6103b260015491610c23604051948594855260606020860152606085019061151a565b90838203604085015261151a565b015190508a80610bd1565b90600a870160005260206000209160005b601f1985168110610cbf575093600184600b9461018094610c00987face89e3f00bbd92defd5cdde93b9b5ba72aa99e0e4d76ebbdf6e08ac9feefa9c9c98601f19811610610ca6575b505050811b01600a850155610be9565b015160001960f88460031b161c191690558a8080610c96565b91926020600181928685015181550194019201610c4d565b610d0690600a88016000526020600020601f850160051c8101916020861061047e57601f0160051c019061155a565b86610b8b565b015190508680610b46565b9250600987016000526020600020906000935b601f1984168510610d6e576001945083601f19811610610d55575b505050811b016009850155610b5e565b015160001960f88460031b161c19169055868080610d45565b81810151835560209485019460019093019290910190610d2a565b610db890600989016000526020600020601f850160051c8101916020861061047e57601f0160051c019061155a565b87610b2f565b015190508680610aad565b9250600787016000526020600020906000935b601f1984168510610e20576001945083601f19811610610e07575b505050811b016007850155610ac5565b015160001960f88460031b161c19169055868080610df7565b81810151835560209485019460019093019290910190610ddc565b610e6a90600789016000526020600020601f850160051c8101916020861061047e57601f0160051c019061155a565b87610a96565b015190508680610a50565b9250600687016000526020600020906000935b601f1984168510610ed2576001945083601f19811610610eb9575b505050811b016006850155610a68565b015160001960f88460031b161c19169055868080610ea9565b81810151835560209485019460019093019290910190610e8e565b610f1c90600689016000526020600020601f850160051c8101916020861061047e57601f0160051c019061155a565b87610a39565b0151905086806109f3565b9250600587016000526020600020906000935b601f1984168510610f84576001945083601f19811610610f6b575b505050811b016005850155610a0b565b015160001960f88460031b161c19169055868080610f5b565b81810151835560209485019460019093019290910190610f40565b610fce90600589016000526020600020601f850160051c8101916020861061047e57601f0160051c019061155a565b876109dc565b015190508680610996565b9250600487016000526020600020906000935b601f1984168510611036576001945083601f1981161061101d575b505050811b0160048501556109ae565b015160001960f88460031b161c1916905586808061100d565b81810151835560209485019460019093019290910190610ff2565b61108090600489016000526020600020601f850160051c8101916020861061047e57601f0160051c019061155a565b8761097f565b015190508680610939565b9250600387016000526020600020906000935b601f19841685106110e8576001945083601f198116106110cf575b505050811b016003850155610951565b015160001960f88460031b161c191690558680806110bf565b818101518355602094850194600190930192909101906110a4565b61113290600389016000526020600020601f850160051c8101916020861061047e57601f0160051c019061155a565b87610922565b0151905086806108dc565b9250600287016000526020600020906000935b601f198416851061119a576001945083601f19811610611181575b505050811b0160028501556108f4565b015160001960f88460031b161c19169055868080611171565b81810151835560209485019460019093019290910190611156565b6111e490600289016000526020600020601f850160051c8101916020861061047e57601f0160051c019061155a565b876108c5565b01519050868061087f565b9250600187016000526020600020906000935b601f198416851061124c576001945083601f19811610611233575b505050811b016001850155610897565b015160001960f88460031b161c19169055868080611223565b81810151835560209485019460019093019290910190611208565b61129690600189016000526020600020601f850160051c8101916020861061047e57601f0160051c019061155a565b87610868565b015190508680610825565b9250866000526020600020906000935b601f19841685106112f8576001945083601f198116106112df575b505050811b01845561083a565b015160001960f88460031b161c191690558680806112d2565b818101518355602094850194600190930192909101906112b7565b61133f90886000526020600020601f850160051c8101916020861061047e57601f0160051c019061155a565b8761080e565b634e487b7160e01b600052601160045260246000fd5b346101e65760003660031901126101e6576020906001548152f35b602081019081106001600160401b0382111761048857604052565b90601f801991011681019081106001600160401b0382111761048857604052565b81601f820112156101e6578035906001600160401b03821161048857604051926113e6601f8401601f191660200185611391565b828452602083830101116101e657816000926020809301838601378301015290565b9060406003198301126101e65760043591602435906001600160401b0382116101e657611437916004016113b2565b90565b90600182811c9216801561146a575b602083101461145457565b634e487b7160e01b600052602260045260246000fd5b91607f1691611449565b90604051918260008254926114888461143a565b9081845260019485811690816000146114f757506001146114b4575b50506114b292500383611391565b565b9093915060005260209081600020936000915b8183106114df5750506114b2935082010138806114a4565b855488840185015294850194879450918301916114c7565b9150506114b294506020925060ff191682840152151560051b82010138806114a4565b919082519283825260005b848110611546575050826000602080949584010152601f8019910116010190565b602081830181015184830182015201611525565b818110611565575050565b6000815560010161155a565b1561157857565b60405162461bcd60e51b815260206004820152601660248201527544656d616e6420646f6573206e6f742065786973742160501b6044820152606490fd5b6115c0815461143a565b90816115ca575050565b81601f600093116001146115dc575055565b9080839182526115fb601f60208420940160051c84016001850161155a565b555556fea2646970667358221220ccb9f9f78f2afd72ff2238d6c440a9ee93570814b4dcd8fe105c4a20498a0b4764736f6c63430008120033","opcodes":"PUSH1 0x80 DUP1 PUSH1 0x40 MSTORE CALLVALUE PUSH2 0x16 JUMPI PUSH2 0x1635 SWAP1 DUP2 PUSH2 0x1C DUP3 CODECOPY RETURN JUMPDEST PUSH1 0x0 DUP1 REVERT INVALID PUSH1 0x80 DUP1 PUSH1 0x40 MSTORE PUSH1 0x4 CALLDATASIZE LT ISZERO PUSH2 0x13 JUMPI PUSH1 0x0 DUP1 REVERT JUMPDEST PUSH1 0x0 CALLDATALOAD PUSH1 0xE0 SHR SWAP1 DUP2 PUSH4 0x3B2BF8E EQ PUSH2 0x135B JUMPI POP DUP1 PUSH4 0x5575E661 EQ PUSH2 0x622 JUMPI DUP1 PUSH4 0x9818268E EQ PUSH2 0x49E JUMPI DUP1 PUSH4 0x9A2FE666 EQ PUSH2 0x2D4 JUMPI DUP1 PUSH4 0xF1BF95FB EQ PUSH2 0x1EB JUMPI PUSH4 0xF62DE828 EQ PUSH2 0x61 JUMPI PUSH1 0x0 DUP1 REVERT JUMPDEST CALLVALUE PUSH2 0x1E6 JUMPI PUSH1 0x20 CALLDATASIZE PUSH1 0x3 NOT ADD SLT PUSH2 0x1E6 JUMPI PUSH1 0x4 CALLDATALOAD PUSH1 0x0 MSTORE PUSH1 0x0 PUSH1 0x20 MSTORE PUSH1 0x40 PUSH1 0x0 KECCAK256 PUSH2 0x8B DUP2 PUSH2 0x1474 JUMP JUMPDEST PUSH2 0x97 PUSH1 0x1 DUP4 ADD PUSH2 0x1474 JUMP JUMPDEST SWAP2 PUSH2 0xA4 PUSH1 0x2 DUP3 ADD PUSH2 0x1474 JUMP JUMPDEST SWAP1 PUSH2 0xB1 PUSH1 0x3 DUP3 ADD PUSH2 0x1474 JUMP JUMPDEST PUSH2 0xBD PUSH1 0x4 DUP4 ADD PUSH2 0x1474 JUMP JUMPDEST PUSH2 0xC9 PUSH1 0x5 DUP5 ADD PUSH2 0x1474 JUMP JUMPDEST PUSH2 0xD5 PUSH1 0x6 DUP6 ADD PUSH2 0x1474 JUMP JUMPDEST PUSH2 0xE1 PUSH1 0x7 DUP7 ADD PUSH2 0x1474 JUMP JUMPDEST SWAP2 PUSH1 0x8 DUP7 ADD SLOAD SWAP4 PUSH1 0x9 DUP8 ADD PUSH2 0xF5 SWAP1 PUSH2 0x1474 JUMP JUMPDEST SWAP6 PUSH2 0x102 PUSH1 0xA DUP10 ADD PUSH2 0x1474 JUMP JUMPDEST SWAP8 PUSH1 0xB ADD SLOAD PUSH1 0xFF AND SWAP9 PUSH1 0x40 MLOAD SWAP12 DUP13 SWAP12 DUP13 PUSH2 0x1A0 DUP1 SWAP2 MSTORE DUP14 ADD PUSH2 0x123 SWAP2 PUSH2 0x151A JUMP JUMPDEST DUP13 DUP2 SUB PUSH1 0x20 DUP15 ADD MSTORE PUSH2 0x134 SWAP2 PUSH2 0x151A JUMP JUMPDEST DUP12 DUP2 SUB PUSH1 0x40 DUP14 ADD MSTORE PUSH2 0x145 SWAP2 PUSH2 0x151A JUMP JUMPDEST DUP11 DUP2 SUB PUSH1 0x60 DUP13 ADD MSTORE PUSH2 0x156 SWAP2 PUSH2 0x151A JUMP JUMPDEST DUP10 DUP2 SUB PUSH1 0x80 DUP12 ADD MSTORE PUSH2 0x167 SWAP2 PUSH2 0x151A JUMP JUMPDEST DUP9 DUP2 SUB PUSH1 0xA0 DUP11 ADD MSTORE PUSH2 0x178 SWAP2 PUSH2 0x151A JUMP JUMPDEST DUP8 DUP2 SUB PUSH1 0xC0 DUP10 ADD MSTORE PUSH2 0x189 SWAP2 PUSH2 0x151A JUMP JUMPDEST DUP7 DUP2 SUB PUSH1 0xE0 DUP9 ADD MSTORE PUSH2 0x19A SWAP2 PUSH2 0x151A JUMP JUMPDEST SWAP1 PUSH1 0xFF DUP2 AND ISZERO ISZERO PUSH2 0x100 DUP8 ADD MSTORE PUSH1 0x8 SHR PUSH1 0xFF AND ISZERO ISZERO PUSH2 0x120 DUP7 ADD MSTORE DUP5 DUP2 SUB PUSH2 0x140 DUP7 ADD MSTORE PUSH2 0x1C7 SWAP2 PUSH2 0x151A JUMP JUMPDEST DUP4 DUP2 SUB PUSH2 0x160 DUP6 ADD MSTORE PUSH2 0x1D9 SWAP2 PUSH2 0x151A JUMP JUMPDEST SWAP1 ISZERO ISZERO PUSH2 0x180 DUP4 ADD MSTORE SUB SWAP1 RETURN JUMPDEST PUSH1 0x0 DUP1 REVERT JUMPDEST CALLVALUE PUSH2 0x1E6 JUMPI PUSH1 0x20 CALLDATASIZE PUSH1 0x3 NOT ADD SLT PUSH2 0x1E6 JUMPI PUSH32 0x1DB773FE7B06EFAB51C674941614102D157A466A118CC9CF6256665B3BE96EC4 PUSH1 0x20 PUSH1 0x4 CALLDATALOAD DUP1 PUSH1 0x0 MSTORE PUSH1 0x0 DUP3 MSTORE PUSH2 0x23E PUSH1 0xFF PUSH1 0xB PUSH1 0x40 PUSH1 0x0 KECCAK256 ADD SLOAD AND PUSH2 0x1571 JUMP JUMPDEST DUP1 PUSH1 0x0 MSTORE PUSH1 0x0 DUP3 MSTORE PUSH1 0x0 PUSH1 0xB PUSH1 0x40 DUP3 KECCAK256 PUSH2 0x257 DUP2 PUSH2 0x15B6 JUMP JUMPDEST PUSH2 0x263 PUSH1 0x1 DUP3 ADD PUSH2 0x15B6 JUMP JUMPDEST PUSH2 0x26F PUSH1 0x2 DUP3 ADD PUSH2 0x15B6 JUMP JUMPDEST PUSH2 0x27B PUSH1 0x3 DUP3 ADD PUSH2 0x15B6 JUMP JUMPDEST PUSH2 0x287 PUSH1 0x4 DUP3 ADD PUSH2 0x15B6 JUMP JUMPDEST PUSH2 0x293 PUSH1 0x5 DUP3 ADD PUSH2 0x15B6 JUMP JUMPDEST PUSH2 0x29F PUSH1 0x6 DUP3 ADD PUSH2 0x15B6 JUMP JUMPDEST PUSH2 0x2AB PUSH1 0x7 DUP3 ADD PUSH2 0x15B6 JUMP JUMPDEST DUP3 PUSH1 0x8 DUP3 ADD SSTORE PUSH2 0x2BD PUSH1 0x9 DUP3 ADD PUSH2 0x15B6 JUMP JUMPDEST PUSH2 0x2C9 PUSH1 0xA DUP3 ADD PUSH2 0x15B6 JUMP JUMPDEST ADD SSTORE PUSH1 0x40 MLOAD SWAP1 DUP2 MSTORE LOG1 STOP JUMPDEST CALLVALUE PUSH2 0x1E6 JUMPI PUSH2 0x2E2 CALLDATASIZE PUSH2 0x1408 JUMP JUMPDEST SWAP1 DUP1 PUSH1 0x0 MSTORE PUSH1 0x20 SWAP2 PUSH1 0x0 DUP4 MSTORE PUSH2 0x302 PUSH1 0xFF PUSH1 0xB PUSH1 0x40 PUSH1 0x0 KECCAK256 ADD SLOAD AND PUSH2 0x1571 JUMP JUMPDEST DUP2 PUSH1 0x0 MSTORE PUSH1 0x0 DUP4 MSTORE PUSH1 0x40 PUSH1 0x0 KECCAK256 PUSH1 0x9 PUSH1 0x8 DUP3 ADD SWAP2 PUSH1 0x1 SWAP3 DUP4 PUSH1 0xFF NOT DUP3 SLOAD AND OR SWAP1 SSTORE ADD SWAP1 DUP3 MLOAD SWAP1 PUSH1 0x1 PUSH1 0x1 PUSH1 0x40 SHL SUB DUP3 GT PUSH2 0x488 JUMPI PUSH2 0x340 DUP4 SLOAD PUSH2 0x143A JUMP JUMPDEST PUSH1 0x1F DUP2 GT PUSH2 0x44D JUMPI JUMPDEST POP DUP6 PUSH1 0x1F DUP4 GT PUSH1 0x1 EQ PUSH2 0x3C2 JUMPI SWAP2 DUP1 DUP1 PUSH2 0x3B2 SWAP6 SWAP4 PUSH32 0x509E0D561BD3B1CCE99C775F2BBA803D803011F9A476F578878FA1EAE175F1C2 SWAP10 SWAP9 SWAP8 SWAP6 PUSH1 0x0 SWAP4 PUSH2 0x3B7 JUMPI JUMPDEST POP SHL SWAP2 PUSH1 0x0 NOT SWAP1 PUSH1 0x3 SHL SHR NOT AND OR SWAP1 SSTORE JUMPDEST PUSH1 0x40 DUP1 MLOAD SWAP5 DUP6 SWAP5 DUP6 MSTORE DUP5 ADD MSTORE PUSH1 0x40 DUP4 ADD SWAP1 PUSH2 0x151A JUMP JUMPDEST SUB SWAP1 LOG1 STOP JUMPDEST DUP7 ADD MLOAD SWAP3 POP DUP11 PUSH2 0x38B JUMP JUMPDEST PUSH1 0x1F SWAP3 SWAP2 SWAP3 NOT DUP3 AND SWAP1 DUP5 PUSH1 0x0 MSTORE DUP8 PUSH1 0x0 KECCAK256 SWAP2 PUSH1 0x0 JUMPDEST DUP2 DUP2 LT PUSH2 0x438 JUMPI POP SWAP2 DUP4 SWAP2 PUSH2 0x3B2 SWAP7 SWAP5 PUSH32 0x509E0D561BD3B1CCE99C775F2BBA803D803011F9A476F578878FA1EAE175F1C2 SWAP11 SWAP10 SWAP9 SWAP7 SWAP5 LT PUSH2 0x41F JUMPI JUMPDEST POP POP DUP2 SHL ADD SWAP1 SSTORE PUSH2 0x39C JUMP JUMPDEST DUP6 ADD MLOAD PUSH1 0x0 NOT PUSH1 0xF8 DUP5 PUSH1 0x3 SHL AND SHR NOT AND SWAP1 SSTORE DUP9 DUP1 PUSH2 0x413 JUMP JUMPDEST DUP8 DUP4 ADD MLOAD DUP5 SSTORE SWAP3 DUP6 ADD SWAP3 SWAP2 DUP10 ADD SWAP2 DUP10 ADD PUSH2 0x3D7 JUMP JUMPDEST PUSH2 0x478 SWAP1 DUP5 PUSH1 0x0 MSTORE DUP8 PUSH1 0x0 KECCAK256 PUSH1 0x1F DUP6 ADD PUSH1 0x5 SHR DUP2 ADD SWAP2 DUP10 DUP7 LT PUSH2 0x47E JUMPI JUMPDEST PUSH1 0x1F ADD PUSH1 0x5 SHR ADD SWAP1 PUSH2 0x155A JUMP JUMPDEST DUP7 PUSH2 0x349 JUMP JUMPDEST SWAP1 SWAP2 POP DUP2 SWAP1 PUSH2 0x46B JUMP JUMPDEST PUSH4 0x4E487B71 PUSH1 0xE0 SHL PUSH1 0x0 MSTORE PUSH1 0x41 PUSH1 0x4 MSTORE PUSH1 0x24 PUSH1 0x0 REVERT JUMPDEST CALLVALUE PUSH2 0x1E6 JUMPI PUSH2 0x4AC CALLDATASIZE PUSH2 0x1408 JUMP JUMPDEST SWAP1 DUP1 PUSH1 0x0 MSTORE PUSH1 0x20 SWAP1 PUSH1 0x0 DUP3 MSTORE PUSH2 0x4CC PUSH1 0xFF PUSH1 0xB PUSH1 0x40 PUSH1 0x0 KECCAK256 ADD SLOAD AND PUSH2 0x1571 JUMP JUMPDEST DUP1 PUSH1 0x0 MSTORE PUSH1 0x0 DUP3 MSTORE PUSH1 0xA PUSH1 0x40 PUSH1 0x0 KECCAK256 PUSH1 0x8 DUP2 ADD PUSH2 0x100 PUSH2 0xFF00 NOT DUP3 SLOAD AND OR SWAP1 SSTORE ADD SWAP3 DUP1 MLOAD PUSH1 0x1 PUSH1 0x1 PUSH1 0x40 SHL SUB DUP2 GT PUSH2 0x488 JUMPI PUSH2 0x508 DUP6 SLOAD PUSH2 0x143A JUMP JUMPDEST PUSH1 0x1F DUP2 GT PUSH2 0x5F2 JUMPI JUMPDEST POP DUP4 PUSH1 0x1F DUP3 GT PUSH1 0x1 EQ PUSH2 0x583 JUMPI SWAP5 DUP2 PUSH2 0x3B2 SWAP4 SWAP3 PUSH32 0x530455F222B8BB0F4EBE2433CE880E5E426CED50AB5B2F0C9CBD72D278828A70 SWAP8 PUSH1 0x0 SWAP2 PUSH2 0x578 JUMPI JUMPDEST POP DUP2 PUSH1 0x1 SHL SWAP2 PUSH1 0x0 NOT SWAP1 PUSH1 0x3 SHL SHR NOT AND OR SWAP1 SSTORE PUSH1 0x40 DUP1 MLOAD SWAP5 DUP6 SWAP5 DUP6 MSTORE DUP5 ADD MSTORE PUSH1 0x40 DUP4 ADD SWAP1 PUSH2 0x151A JUMP JUMPDEST SWAP1 POP DUP4 ADD MLOAD DUP9 PUSH2 0x54F JUMP JUMPDEST PUSH1 0x1F NOT DUP3 AND SWAP1 DUP7 PUSH1 0x0 MSTORE DUP6 PUSH1 0x0 KECCAK256 SWAP2 PUSH1 0x0 JUMPDEST DUP2 DUP2 LT PUSH2 0x5DB JUMPI POP SWAP3 PUSH32 0x530455F222B8BB0F4EBE2433CE880E5E426CED50AB5B2F0C9CBD72D278828A70 SWAP8 SWAP3 PUSH1 0x1 SWAP3 DUP3 PUSH2 0x3B2 SWAP8 SWAP7 LT PUSH2 0x41F JUMPI POP POP DUP2 SHL ADD SWAP1 SSTORE PUSH2 0x39C JUMP JUMPDEST SWAP2 SWAP3 DUP8 PUSH1 0x1 DUP2 SWAP3 DUP7 DUP10 ADD MLOAD DUP2 SSTORE ADD SWAP5 ADD SWAP3 ADD PUSH2 0x595 JUMP JUMPDEST PUSH2 0x61C SWAP1 DUP7 PUSH1 0x0 MSTORE DUP6 PUSH1 0x0 KECCAK256 PUSH1 0x1F DUP5 ADD PUSH1 0x5 SHR DUP2 ADD SWAP2 DUP8 DUP6 LT PUSH2 0x47E JUMPI PUSH1 0x1F ADD PUSH1 0x5 SHR ADD SWAP1 PUSH2 0x155A JUMP JUMPDEST DUP6 PUSH2 0x511 JUMP JUMPDEST CALLVALUE PUSH2 0x1E6 JUMPI PUSH2 0x100 CALLDATASIZE PUSH1 0x3 NOT ADD SLT PUSH2 0x1E6 JUMPI PUSH1 0x4 CALLDATALOAD PUSH1 0x1 PUSH1 0x1 PUSH1 0x40 SHL SUB DUP2 GT PUSH2 0x1E6 JUMPI PUSH2 0x653 SWAP1 CALLDATASIZE SWAP1 PUSH1 0x4 ADD PUSH2 0x13B2 JUMP JUMPDEST PUSH1 0x24 CALLDATALOAD PUSH1 0x1 PUSH1 0x1 PUSH1 0x40 SHL SUB DUP2 GT PUSH2 0x1E6 JUMPI PUSH2 0x672 SWAP1 CALLDATASIZE SWAP1 PUSH1 0x4 ADD PUSH2 0x13B2 JUMP JUMPDEST SWAP1 PUSH1 0x44 CALLDATALOAD PUSH1 0x1 PUSH1 0x1 PUSH1 0x40 SHL SUB DUP2 GT PUSH2 0x1E6 JUMPI PUSH2 0x692 SWAP1 CALLDATASIZE SWAP1 PUSH1 0x4 ADD PUSH2 0x13B2 JUMP JUMPDEST SWAP2 PUSH1 0x64 CALLDATALOAD PUSH1 0x1 PUSH1 0x1 PUSH1 0x40 SHL SUB DUP2 GT PUSH2 0x1E6 JUMPI PUSH2 0x6B2 SWAP1 CALLDATASIZE SWAP1 PUSH1 0x4 ADD PUSH2 0x13B2 JUMP JUMPDEST SWAP3 PUSH1 0x84 CALLDATALOAD PUSH1 0x1 PUSH1 0x1 PUSH1 0x40 SHL SUB DUP2 GT PUSH2 0x1E6 JUMPI PUSH2 0x6D2 SWAP1 CALLDATASIZE SWAP1 PUSH1 0x4 ADD PUSH2 0x13B2 JUMP JUMPDEST PUSH1 0xA4 CALLDATALOAD PUSH1 0x1 PUSH1 0x1 PUSH1 0x40 SHL SUB DUP2 GT PUSH2 0x1E6 JUMPI PUSH2 0x6F1 SWAP1 CALLDATASIZE SWAP1 PUSH1 0x4 ADD PUSH2 0x13B2 JUMP JUMPDEST PUSH1 0xC4 CALLDATALOAD PUSH1 0x1 PUSH1 0x1 PUSH1 0x40 SHL SUB DUP2 GT PUSH2 0x1E6 JUMPI PUSH2 0x710 SWAP1 CALLDATASIZE SWAP1 PUSH1 0x4 ADD PUSH2 0x13B2 JUMP JUMPDEST PUSH1 0xE4 CALLDATALOAD PUSH1 0x1 PUSH1 0x1 PUSH1 0x40 SHL SUB DUP2 GT PUSH2 0x1E6 JUMPI PUSH2 0x72F SWAP1 CALLDATASIZE SWAP1 PUSH1 0x4 ADD PUSH2 0x13B2 JUMP JUMPDEST SWAP2 PUSH1 0x1 SLOAD SWAP4 PUSH1 0x0 NOT DUP6 EQ PUSH2 0x1345 JUMPI PUSH1 0x1 DUP6 ADD PUSH1 0x1 SSTORE PUSH1 0x40 MLOAD SWAP9 DUP10 PUSH2 0x1A0 DUP2 ADD LT PUSH1 0x1 PUSH1 0x1 PUSH1 0x40 SHL SUB PUSH2 0x1A0 DUP13 ADD GT OR PUSH2 0x488 JUMPI PUSH1 0x1 SWAP7 PUSH2 0x1A0 DUP12 ADD PUSH1 0x40 MSTORE DUP10 DUP12 MSTORE DUP9 PUSH1 0x20 DUP13 ADD MSTORE PUSH1 0x40 DUP12 ADD MSTORE PUSH1 0x60 DUP11 ADD MSTORE PUSH1 0x80 DUP10 ADD MSTORE PUSH1 0xA0 DUP9 ADD MSTORE PUSH1 0xC0 DUP8 ADD MSTORE PUSH1 0xE0 DUP7 ADD MSTORE PUSH1 0x0 PUSH2 0x100 DUP7 ADD MSTORE PUSH1 0x0 PUSH2 0x120 DUP7 ADD MSTORE PUSH1 0x40 MLOAD PUSH2 0x7B0 DUP2 PUSH2 0x1376 JUMP JUMPDEST PUSH1 0x0 DUP2 MSTORE PUSH2 0x140 DUP7 ADD MSTORE PUSH1 0x40 MLOAD PUSH2 0x7C6 DUP2 PUSH2 0x1376 JUMP JUMPDEST PUSH1 0x0 DUP2 MSTORE PUSH2 0x160 DUP7 ADD MSTORE DUP2 PUSH2 0x180 DUP7 ADD MSTORE ADD PUSH1 0x0 MSTORE PUSH1 0x0 PUSH1 0x20 MSTORE PUSH1 0x40 PUSH1 0x0 KECCAK256 SWAP3 DUP1 MLOAD DUP1 MLOAD SWAP1 PUSH1 0x1 PUSH1 0x1 PUSH1 0x40 SHL SUB DUP3 GT PUSH2 0x488 JUMPI DUP2 SWAP1 PUSH2 0x805 DUP8 SLOAD PUSH2 0x143A JUMP JUMPDEST PUSH1 0x1F DUP2 GT PUSH2 0x1313 JUMPI JUMPDEST POP PUSH1 0x20 SWAP1 PUSH1 0x1F DUP4 GT PUSH1 0x1 EQ PUSH2 0x12A7 JUMPI PUSH1 0x0 SWAP3 PUSH2 0x129C JUMPI JUMPDEST POP POP DUP2 PUSH1 0x1 SHL SWAP2 PUSH1 0x0 NOT SWAP1 PUSH1 0x3 SHL SHR NOT AND OR DUP5 SSTORE JUMPDEST PUSH1 0x20 DUP2 ADD MLOAD DUP1 MLOAD SWAP1 PUSH1 0x1 PUSH1 0x1 PUSH1 0x40 SHL SUB DUP3 GT PUSH2 0x488 JUMPI DUP2 SWAP1 PUSH2 0x85F PUSH1 0x1 DUP9 ADD SLOAD PUSH2 0x143A JUMP JUMPDEST PUSH1 0x1F DUP2 GT PUSH2 0x1267 JUMPI JUMPDEST POP PUSH1 0x20 SWAP1 PUSH1 0x1F DUP4 GT PUSH1 0x1 EQ PUSH2 0x11F5 JUMPI PUSH1 0x0 SWAP3 PUSH2 0x11EA JUMPI JUMPDEST POP POP DUP2 PUSH1 0x1 SHL SWAP2 PUSH1 0x0 NOT SWAP1 PUSH1 0x3 SHL SHR NOT AND OR PUSH1 0x1 DUP6 ADD SSTORE JUMPDEST PUSH1 0x40 DUP2 ADD MLOAD DUP1 MLOAD SWAP1 PUSH1 0x1 PUSH1 0x1 PUSH1 0x40 SHL SUB DUP3 GT PUSH2 0x488 JUMPI DUP2 SWAP1 PUSH2 0x8BC PUSH1 0x2 DUP9 ADD SLOAD PUSH2 0x143A JUMP JUMPDEST PUSH1 0x1F DUP2 GT PUSH2 0x11B5 JUMPI JUMPDEST POP PUSH1 0x20 SWAP1 PUSH1 0x1F DUP4 GT PUSH1 0x1 EQ PUSH2 0x1143 JUMPI PUSH1 0x0 SWAP3 PUSH2 0x1138 JUMPI JUMPDEST POP POP DUP2 PUSH1 0x1 SHL SWAP2 PUSH1 0x0 NOT SWAP1 PUSH1 0x3 SHL SHR NOT AND OR PUSH1 0x2 DUP6 ADD SSTORE JUMPDEST PUSH1 0x60 DUP2 ADD MLOAD DUP1 MLOAD SWAP1 PUSH1 0x1 PUSH1 0x1 PUSH1 0x40 SHL SUB DUP3 GT PUSH2 0x488 JUMPI DUP2 SWAP1 PUSH2 0x919 PUSH1 0x3 DUP9 ADD SLOAD PUSH2 0x143A JUMP JUMPDEST PUSH1 0x1F DUP2 GT PUSH2 0x1103 JUMPI JUMPDEST POP PUSH1 0x20 SWAP1 PUSH1 0x1F DUP4 GT PUSH1 0x1 EQ PUSH2 0x1091 JUMPI PUSH1 0x0 SWAP3 PUSH2 0x1086 JUMPI JUMPDEST POP POP DUP2 PUSH1 0x1 SHL SWAP2 PUSH1 0x0 NOT SWAP1 PUSH1 0x3 SHL SHR NOT AND OR PUSH1 0x3 DUP6 ADD SSTORE JUMPDEST PUSH1 0x80 DUP2 ADD MLOAD DUP1 MLOAD SWAP1 PUSH1 0x1 PUSH1 0x1 PUSH1 0x40 SHL SUB DUP3 GT PUSH2 0x488 JUMPI DUP2 SWAP1 PUSH2 0x976 PUSH1 0x4 DUP9 ADD SLOAD PUSH2 0x143A JUMP JUMPDEST PUSH1 0x1F DUP2 GT PUSH2 0x1051 JUMPI JUMPDEST POP PUSH1 0x20 SWAP1 PUSH1 0x1F DUP4 GT PUSH1 0x1 EQ PUSH2 0xFDF JUMPI PUSH1 0x0 SWAP3 PUSH2 0xFD4 JUMPI JUMPDEST POP POP DUP2 PUSH1 0x1 SHL SWAP2 PUSH1 0x0 NOT SWAP1 PUSH1 0x3 SHL SHR NOT AND OR PUSH1 0x4 DUP6 ADD SSTORE JUMPDEST PUSH1 0xA0 DUP2 ADD MLOAD DUP1 MLOAD SWAP1 PUSH1 0x1 PUSH1 0x1 PUSH1 0x40 SHL SUB DUP3 GT PUSH2 0x488 JUMPI DUP2 SWAP1 PUSH2 0x9D3 PUSH1 0x5 DUP9 ADD SLOAD PUSH2 0x143A JUMP JUMPDEST PUSH1 0x1F DUP2 GT PUSH2 0xF9F JUMPI JUMPDEST POP PUSH1 0x20 SWAP1 PUSH1 0x1F DUP4 GT PUSH1 0x1 EQ PUSH2 0xF2D JUMPI PUSH1 0x0 SWAP3 PUSH2 0xF22 JUMPI JUMPDEST POP POP DUP2 PUSH1 0x1 SHL SWAP2 PUSH1 0x0 NOT SWAP1 PUSH1 0x3 SHL SHR NOT AND OR PUSH1 0x5 DUP6 ADD SSTORE JUMPDEST PUSH1 0xC0 DUP2 ADD MLOAD DUP1 MLOAD SWAP1 PUSH1 0x1 PUSH1 0x1 PUSH1 0x40 SHL SUB DUP3 GT PUSH2 0x488 JUMPI DUP2 SWAP1 PUSH2 0xA30 PUSH1 0x6 DUP9 ADD SLOAD PUSH2 0x143A JUMP JUMPDEST PUSH1 0x1F DUP2 GT PUSH2 0xEED JUMPI JUMPDEST POP PUSH1 0x20 SWAP1 PUSH1 0x1F DUP4 GT PUSH1 0x1 EQ PUSH2 0xE7B JUMPI PUSH1 0x0 SWAP3 PUSH2 0xE70 JUMPI JUMPDEST POP POP DUP2 PUSH1 0x1 SHL SWAP2 PUSH1 0x0 NOT SWAP1 PUSH1 0x3 SHL SHR NOT AND OR PUSH1 0x6 DUP6 ADD SSTORE JUMPDEST PUSH1 0xE0 DUP2 ADD MLOAD DUP1 MLOAD SWAP1 PUSH1 0x1 PUSH1 0x1 PUSH1 0x40 SHL SUB DUP3 GT PUSH2 0x488 JUMPI DUP2 SWAP1 PUSH2 0xA8D PUSH1 0x7 DUP9 ADD SLOAD PUSH2 0x143A JUMP JUMPDEST PUSH1 0x1F DUP2 GT PUSH2 0xE3B JUMPI JUMPDEST POP PUSH1 0x20 SWAP1 PUSH1 0x1F DUP4 GT PUSH1 0x1 EQ PUSH2 0xDC9 JUMPI PUSH1 0x0 SWAP3 PUSH2 0xDBE JUMPI JUMPDEST POP POP DUP2 PUSH1 0x1 SHL SWAP2 PUSH1 0x0 NOT SWAP1 PUSH1 0x3 SHL SHR NOT AND OR PUSH1 0x7 DUP6 ADD SSTORE JUMPDEST PUSH1 0x8 DUP5 ADD PUSH2 0xAE6 PUSH2 0x100 DUP4 ADD MLOAD ISZERO ISZERO DUP3 SWAP1 PUSH1 0xFF DUP1 NOT DUP4 SLOAD AND SWAP2 ISZERO ISZERO AND OR SWAP1 SSTORE JUMP JUMPDEST PUSH2 0x120 DUP3 ADD MLOAD DUP2 SLOAD PUSH2 0xFF00 NOT AND SWAP1 ISZERO ISZERO PUSH1 0x8 SHL PUSH2 0xFF00 AND OR SWAP1 SSTORE PUSH2 0x140 DUP2 ADD MLOAD DUP1 MLOAD SWAP1 PUSH1 0x1 PUSH1 0x1 PUSH1 0x40 SHL SUB DUP3 GT PUSH2 0x488 JUMPI DUP2 SWAP1 PUSH2 0xB26 PUSH1 0x9 DUP9 ADD SLOAD PUSH2 0x143A JUMP JUMPDEST PUSH1 0x1F DUP2 GT PUSH2 0xD89 JUMPI JUMPDEST POP PUSH1 0x20 SWAP1 PUSH1 0x1F DUP4 GT PUSH1 0x1 EQ PUSH2 0xD17 JUMPI PUSH1 0x0 SWAP3 PUSH2 0xD0C JUMPI JUMPDEST POP POP DUP2 PUSH1 0x1 SHL SWAP2 PUSH1 0x0 NOT SWAP1 PUSH1 0x3 SHL SHR NOT AND OR PUSH1 0x9 DUP6 ADD SSTORE JUMPDEST PUSH2 0x160 DUP2 ADD MLOAD DUP1 MLOAD SWAP1 PUSH1 0x1 PUSH1 0x1 PUSH1 0x40 SHL SUB DUP3 GT PUSH2 0x488 JUMPI PUSH2 0xB82 PUSH1 0xA DUP8 ADD SLOAD PUSH2 0x143A JUMP JUMPDEST PUSH1 0x1F DUP2 GT PUSH2 0xCD7 JUMPI JUMPDEST POP PUSH1 0x20 SWAP1 PUSH1 0x1F DUP4 GT PUSH1 0x1 EQ PUSH2 0xC3C JUMPI PUSH2 0xC00 SWAP4 DUP4 PUSH32 0xACE89E3F00BBD92DEFD5CDDE93B9B5BA72AA99E0E4D76EBBDF6E08AC9FEEFA9C SWAP9 SWAP5 PUSH1 0xB SWAP5 PUSH2 0x180 SWAP5 PUSH1 0x0 SWAP3 PUSH2 0xC31 JUMPI JUMPDEST POP POP DUP2 PUSH1 0x1 SHL SWAP2 PUSH1 0x0 NOT SWAP1 PUSH1 0x3 SHL SHR NOT AND OR PUSH1 0xA DUP6 ADD SSTORE JUMPDEST ADD MLOAD ISZERO ISZERO SWAP2 ADD SWAP1 PUSH1 0xFF DUP1 NOT DUP4 SLOAD AND SWAP2 ISZERO ISZERO AND OR SWAP1 SSTORE JUMP JUMPDEST PUSH2 0x3B2 PUSH1 0x1 SLOAD SWAP2 PUSH2 0xC23 PUSH1 0x40 MLOAD SWAP5 DUP6 SWAP5 DUP6 MSTORE PUSH1 0x60 PUSH1 0x20 DUP7 ADD MSTORE PUSH1 0x60 DUP6 ADD SWAP1 PUSH2 0x151A JUMP JUMPDEST SWAP1 DUP4 DUP3 SUB PUSH1 0x40 DUP6 ADD MSTORE PUSH2 0x151A JUMP JUMPDEST ADD MLOAD SWAP1 POP DUP11 DUP1 PUSH2 0xBD1 JUMP JUMPDEST SWAP1 PUSH1 0xA DUP8 ADD PUSH1 0x0 MSTORE PUSH1 0x20 PUSH1 0x0 KECCAK256 SWAP2 PUSH1 0x0 JUMPDEST PUSH1 0x1F NOT DUP6 AND DUP2 LT PUSH2 0xCBF JUMPI POP SWAP4 PUSH1 0x1 DUP5 PUSH1 0xB SWAP5 PUSH2 0x180 SWAP5 PUSH2 0xC00 SWAP9 PUSH32 0xACE89E3F00BBD92DEFD5CDDE93B9B5BA72AA99E0E4D76EBBDF6E08AC9FEEFA9C SWAP13 SWAP9 PUSH1 0x1F NOT DUP2 AND LT PUSH2 0xCA6 JUMPI JUMPDEST POP POP POP DUP2 SHL ADD PUSH1 0xA DUP6 ADD SSTORE PUSH2 0xBE9 JUMP JUMPDEST ADD MLOAD PUSH1 0x0 NOT PUSH1 0xF8 DUP5 PUSH1 0x3 SHL AND SHR NOT AND SWAP1 SSTORE DUP11 DUP1 DUP1 PUSH2 0xC96 JUMP JUMPDEST SWAP2 SWAP3 PUSH1 0x20 PUSH1 0x1 DUP2 SWAP3 DUP7 DUP6 ADD MLOAD DUP2 SSTORE ADD SWAP5 ADD SWAP3 ADD PUSH2 0xC4D JUMP JUMPDEST PUSH2 0xD06 SWAP1 PUSH1 0xA DUP9 ADD PUSH1 0x0 MSTORE PUSH1 0x20 PUSH1 0x0 KECCAK256 PUSH1 0x1F DUP6 ADD PUSH1 0x5 SHR DUP2 ADD SWAP2 PUSH1 0x20 DUP7 LT PUSH2 0x47E JUMPI PUSH1 0x1F ADD PUSH1 0x5 SHR ADD SWAP1 PUSH2 0x155A JUMP JUMPDEST DUP7 PUSH2 0xB8B JUMP JUMPDEST ADD MLOAD SWAP1 POP DUP7 DUP1 PUSH2 0xB46 JUMP JUMPDEST SWAP3 POP PUSH1 0x9 DUP8 ADD PUSH1 0x0 MSTORE PUSH1 0x20 PUSH1 0x0 KECCAK256 SWAP1 PUSH1 0x0 SWAP4 JUMPDEST PUSH1 0x1F NOT DUP5 AND DUP6 LT PUSH2 0xD6E JUMPI PUSH1 0x1 SWAP5 POP DUP4 PUSH1 0x1F NOT DUP2 AND LT PUSH2 0xD55 JUMPI JUMPDEST POP POP POP DUP2 SHL ADD PUSH1 0x9 DUP6 ADD SSTORE PUSH2 0xB5E JUMP JUMPDEST ADD MLOAD PUSH1 0x0 NOT PUSH1 0xF8 DUP5 PUSH1 0x3 SHL AND SHR NOT AND SWAP1 SSTORE DUP7 DUP1 DUP1 PUSH2 0xD45 JUMP JUMPDEST DUP2 DUP2 ADD MLOAD DUP4 SSTORE PUSH1 0x20 SWAP5 DUP6 ADD SWAP5 PUSH1 0x1 SWAP1 SWAP4 ADD SWAP3 SWAP1 SWAP2 ADD SWAP1 PUSH2 0xD2A JUMP JUMPDEST PUSH2 0xDB8 SWAP1 PUSH1 0x9 DUP10 ADD PUSH1 0x0 MSTORE PUSH1 0x20 PUSH1 0x0 KECCAK256 PUSH1 0x1F DUP6 ADD PUSH1 0x5 SHR DUP2 ADD SWAP2 PUSH1 0x20 DUP7 LT PUSH2 0x47E JUMPI PUSH1 0x1F ADD PUSH1 0x5 SHR ADD SWAP1 PUSH2 0x155A JUMP JUMPDEST DUP8 PUSH2 0xB2F JUMP JUMPDEST ADD MLOAD SWAP1 POP DUP7 DUP1 PUSH2 0xAAD JUMP JUMPDEST SWAP3 POP PUSH1 0x7 DUP8 ADD PUSH1 0x0 MSTORE PUSH1 0x20 PUSH1 0x0 KECCAK256 SWAP1 PUSH1 0x0 SWAP4 JUMPDEST PUSH1 0x1F NOT DUP5 AND DUP6 LT PUSH2 0xE20 JUMPI PUSH1 0x1 SWAP5 POP DUP4 PUSH1 0x1F NOT DUP2 AND LT PUSH2 0xE07 JUMPI JUMPDEST POP POP POP DUP2 SHL ADD PUSH1 0x7 DUP6 ADD SSTORE PUSH2 0xAC5 JUMP JUMPDEST ADD MLOAD PUSH1 0x0 NOT PUSH1 0xF8 DUP5 PUSH1 0x3 SHL AND SHR NOT AND SWAP1 SSTORE DUP7 DUP1 DUP1 PUSH2 0xDF7 JUMP JUMPDEST DUP2 DUP2 ADD MLOAD DUP4 SSTORE PUSH1 0x20 SWAP5 DUP6 ADD SWAP5 PUSH1 0x1 SWAP1 SWAP4 ADD SWAP3 SWAP1 SWAP2 ADD SWAP1 PUSH2 0xDDC JUMP JUMPDEST PUSH2 0xE6A SWAP1 PUSH1 0x7 DUP10 ADD PUSH1 0x0 MSTORE PUSH1 0x20 PUSH1 0x0 KECCAK256 PUSH1 0x1F DUP6 ADD PUSH1 0x5 SHR DUP2 ADD SWAP2 PUSH1 0x20 DUP7 LT PUSH2 0x47E JUMPI PUSH1 0x1F ADD PUSH1 0x5 SHR ADD SWAP1 PUSH2 0x155A JUMP JUMPDEST DUP8 PUSH2 0xA96 JUMP JUMPDEST ADD MLOAD SWAP1 POP DUP7 DUP1 PUSH2 0xA50 JUMP JUMPDEST SWAP3 POP PUSH1 0x6 DUP8 ADD PUSH1 0x0 MSTORE PUSH1 0x20 PUSH1 0x0 KECCAK256 SWAP1 PUSH1 0x0 SWAP4 JUMPDEST PUSH1 0x1F NOT DUP5 AND DUP6 LT PUSH2 0xED2 JUMPI PUSH1 0x1 SWAP5 POP DUP4 PUSH1 0x1F NOT DUP2 AND LT PUSH2 0xEB9 JUMPI JUMPDEST POP POP POP DUP2 SHL ADD PUSH1 0x6 DUP6 ADD SSTORE PUSH2 0xA68 JUMP JUMPDEST ADD MLOAD PUSH1 0x0 NOT PUSH1 0xF8 DUP5 PUSH1 0x3 SHL AND SHR NOT AND SWAP1 SSTORE DUP7 DUP1 DUP1 PUSH2 0xEA9 JUMP JUMPDEST DUP2 DUP2 ADD MLOAD DUP4 SSTORE PUSH1 0x20 SWAP5 DUP6 ADD SWAP5 PUSH1 0x1 SWAP1 SWAP4 ADD SWAP3 SWAP1 SWAP2 ADD SWAP1 PUSH2 0xE8E JUMP JUMPDEST PUSH2 0xF1C SWAP1 PUSH1 0x6 DUP10 ADD PUSH1 0x0 MSTORE PUSH1 0x20 PUSH1 0x0 KECCAK256 PUSH1 0x1F DUP6 ADD PUSH1 0x5 SHR DUP2 ADD SWAP2 PUSH1 0x20 DUP7 LT PUSH2 0x47E JUMPI PUSH1 0x1F ADD PUSH1 0x5 SHR ADD SWAP1 PUSH2 0x155A JUMP JUMPDEST DUP8 PUSH2 0xA39 JUMP JUMPDEST ADD MLOAD SWAP1 POP DUP7 DUP1 PUSH2 0x9F3 JUMP JUMPDEST SWAP3 POP PUSH1 0x5 DUP8 ADD PUSH1 0x0 MSTORE PUSH1 0x20 PUSH1 0x0 KECCAK256 SWAP1 PUSH1 0x0 SWAP4 JUMPDEST PUSH1 0x1F NOT DUP5 AND DUP6 LT PUSH2 0xF84 JUMPI PUSH1 0x1 SWAP5 POP DUP4 PUSH1 0x1F NOT DUP2 AND LT PUSH2 0xF6B JUMPI JUMPDEST POP POP POP DUP2 SHL ADD PUSH1 0x5 DUP6 ADD SSTORE PUSH2 0xA0B JUMP JUMPDEST ADD MLOAD PUSH1 0x0 NOT PUSH1 0xF8 DUP5 PUSH1 0x3 SHL AND SHR NOT AND SWAP1 SSTORE DUP7 DUP1 DUP1 PUSH2 0xF5B JUMP JUMPDEST DUP2 DUP2 ADD MLOAD DUP4 SSTORE PUSH1 0x20 SWAP5 DUP6 ADD SWAP5 PUSH1 0x1 SWAP1 SWAP4 ADD SWAP3 SWAP1 SWAP2 ADD SWAP1 PUSH2 0xF40 JUMP JUMPDEST PUSH2 0xFCE SWAP1 PUSH1 0x5 DUP10 ADD PUSH1 0x0 MSTORE PUSH1 0x20 PUSH1 0x0 KECCAK256 PUSH1 0x1F DUP6 ADD PUSH1 0x5 SHR DUP2 ADD SWAP2 PUSH1 0x20 DUP7 LT PUSH2 0x47E JUMPI PUSH1 0x1F ADD PUSH1 0x5 SHR ADD SWAP1 PUSH2 0x155A JUMP JUMPDEST DUP8 PUSH2 0x9DC JUMP JUMPDEST ADD MLOAD SWAP1 POP DUP7 DUP1 PUSH2 0x996 JUMP JUMPDEST SWAP3 POP PUSH1 0x4 DUP8 ADD PUSH1 0x0 MSTORE PUSH1 0x20 PUSH1 0x0 KECCAK256 SWAP1 PUSH1 0x0 SWAP4 JUMPDEST PUSH1 0x1F NOT DUP5 AND DUP6 LT PUSH2 0x1036 JUMPI PUSH1 0x1 SWAP5 POP DUP4 PUSH1 0x1F NOT DUP2 AND LT PUSH2 0x101D JUMPI JUMPDEST POP POP POP DUP2 SHL ADD PUSH1 0x4 DUP6 ADD SSTORE PUSH2 0x9AE JUMP JUMPDEST ADD MLOAD PUSH1 0x0 NOT PUSH1 0xF8 DUP5 PUSH1 0x3 SHL AND SHR NOT AND SWAP1 SSTORE DUP7 DUP1 DUP1 PUSH2 0x100D JUMP JUMPDEST DUP2 DUP2 ADD MLOAD DUP4 SSTORE PUSH1 0x20 SWAP5 DUP6 ADD SWAP5 PUSH1 0x1 SWAP1 SWAP4 ADD SWAP3 SWAP1 SWAP2 ADD SWAP1 PUSH2 0xFF2 JUMP JUMPDEST PUSH2 0x1080 SWAP1 PUSH1 0x4 DUP10 ADD PUSH1 0x0 MSTORE PUSH1 0x20 PUSH1 0x0 KECCAK256 PUSH1 0x1F DUP6 ADD PUSH1 0x5 SHR DUP2 ADD SWAP2 PUSH1 0x20 DUP7 LT PUSH2 0x47E JUMPI PUSH1 0x1F ADD PUSH1 0x5 SHR ADD SWAP1 PUSH2 0x155A JUMP JUMPDEST DUP8 PUSH2 0x97F JUMP JUMPDEST ADD MLOAD SWAP1 POP DUP7 DUP1 PUSH2 0x939 JUMP JUMPDEST SWAP3 POP PUSH1 0x3 DUP8 ADD PUSH1 0x0 MSTORE PUSH1 0x20 PUSH1 0x0 KECCAK256 SWAP1 PUSH1 0x0 SWAP4 JUMPDEST PUSH1 0x1F NOT DUP5 AND DUP6 LT PUSH2 0x10E8 JUMPI PUSH1 0x1 SWAP5 POP DUP4 PUSH1 0x1F NOT DUP2 AND LT PUSH2 0x10CF JUMPI JUMPDEST POP POP POP DUP2 SHL ADD PUSH1 0x3 DUP6 ADD SSTORE PUSH2 0x951 JUMP JUMPDEST ADD MLOAD PUSH1 0x0 NOT PUSH1 0xF8 DUP5 PUSH1 0x3 SHL AND SHR NOT AND SWAP1 SSTORE DUP7 DUP1 DUP1 PUSH2 0x10BF JUMP JUMPDEST DUP2 DUP2 ADD MLOAD DUP4 SSTORE PUSH1 0x20 SWAP5 DUP6 ADD SWAP5 PUSH1 0x1 SWAP1 SWAP4 ADD SWAP3 SWAP1 SWAP2 ADD SWAP1 PUSH2 0x10A4 JUMP JUMPDEST PUSH2 0x1132 SWAP1 PUSH1 0x3 DUP10 ADD PUSH1 0x0 MSTORE PUSH1 0x20 PUSH1 0x0 KECCAK256 PUSH1 0x1F DUP6 ADD PUSH1 0x5 SHR DUP2 ADD SWAP2 PUSH1 0x20 DUP7 LT PUSH2 0x47E JUMPI PUSH1 0x1F ADD PUSH1 0x5 SHR ADD SWAP1 PUSH2 0x155A JUMP JUMPDEST DUP8 PUSH2 0x922 JUMP JUMPDEST ADD MLOAD SWAP1 POP DUP7 DUP1 PUSH2 0x8DC JUMP JUMPDEST SWAP3 POP PUSH1 0x2 DUP8 ADD PUSH1 0x0 MSTORE PUSH1 0x20 PUSH1 0x0 KECCAK256 SWAP1 PUSH1 0x0 SWAP4 JUMPDEST PUSH1 0x1F NOT DUP5 AND DUP6 LT PUSH2 0x119A JUMPI PUSH1 0x1 SWAP5 POP DUP4 PUSH1 0x1F NOT DUP2 AND LT PUSH2 0x1181 JUMPI JUMPDEST POP POP POP DUP2 SHL ADD PUSH1 0x2 DUP6 ADD SSTORE PUSH2 0x8F4 JUMP JUMPDEST ADD MLOAD PUSH1 0x0 NOT PUSH1 0xF8 DUP5 PUSH1 0x3 SHL AND SHR NOT AND SWAP1 SSTORE DUP7 DUP1 DUP1 PUSH2 0x1171 JUMP JUMPDEST DUP2 DUP2 ADD MLOAD DUP4 SSTORE PUSH1 0x20 SWAP5 DUP6 ADD SWAP5 PUSH1 0x1 SWAP1 SWAP4 ADD SWAP3 SWAP1 SWAP2 ADD SWAP1 PUSH2 0x1156 JUMP JUMPDEST PUSH2 0x11E4 SWAP1 PUSH1 0x2 DUP10 ADD PUSH1 0x0 MSTORE PUSH1 0x20 PUSH1 0x0 KECCAK256 PUSH1 0x1F DUP6 ADD PUSH1 0x5 SHR DUP2 ADD SWAP2 PUSH1 0x20 DUP7 LT PUSH2 0x47E JUMPI PUSH1 0x1F ADD PUSH1 0x5 SHR ADD SWAP1 PUSH2 0x155A JUMP JUMPDEST DUP8 PUSH2 0x8C5 JUMP JUMPDEST ADD MLOAD SWAP1 POP DUP7 DUP1 PUSH2 0x87F JUMP JUMPDEST SWAP3 POP PUSH1 0x1 DUP8 ADD PUSH1 0x0 MSTORE PUSH1 0x20 PUSH1 0x0 KECCAK256 SWAP1 PUSH1 0x0 SWAP4 JUMPDEST PUSH1 0x1F NOT DUP5 AND DUP6 LT PUSH2 0x124C JUMPI PUSH1 0x1 SWAP5 POP DUP4 PUSH1 0x1F NOT DUP2 AND LT PUSH2 0x1233 JUMPI JUMPDEST POP POP POP DUP2 SHL ADD PUSH1 0x1 DUP6 ADD SSTORE PUSH2 0x897 JUMP JUMPDEST ADD MLOAD PUSH1 0x0 NOT PUSH1 0xF8 DUP5 PUSH1 0x3 SHL AND SHR NOT AND SWAP1 SSTORE DUP7 DUP1 DUP1 PUSH2 0x1223 JUMP JUMPDEST DUP2 DUP2 ADD MLOAD DUP4 SSTORE PUSH1 0x20 SWAP5 DUP6 ADD SWAP5 PUSH1 0x1 SWAP1 SWAP4 ADD SWAP3 SWAP1 SWAP2 ADD SWAP1 PUSH2 0x1208 JUMP JUMPDEST PUSH2 0x1296 SWAP1 PUSH1 0x1 DUP10 ADD PUSH1 0x0 MSTORE PUSH1 0x20 PUSH1 0x0 KECCAK256 PUSH1 0x1F DUP6 ADD PUSH1 0x5 SHR DUP2 ADD SWAP2 PUSH1 0x20 DUP7 LT PUSH2 0x47E JUMPI PUSH1 0x1F ADD PUSH1 0x5 SHR ADD SWAP1 PUSH2 0x155A JUMP JUMPDEST DUP8 PUSH2 0x868 JUMP JUMPDEST ADD MLOAD SWAP1 POP DUP7 DUP1 PUSH2 0x825 JUMP JUMPDEST SWAP3 POP DUP7 PUSH1 0x0 MSTORE PUSH1 0x20 PUSH1 0x0 KECCAK256 SWAP1 PUSH1 0x0 SWAP4 JUMPDEST PUSH1 0x1F NOT DUP5 AND DUP6 LT PUSH2 0x12F8 JUMPI PUSH1 0x1 SWAP5 POP DUP4 PUSH1 0x1F NOT DUP2 AND LT PUSH2 0x12DF JUMPI JUMPDEST POP POP POP DUP2 SHL ADD DUP5 SSTORE PUSH2 0x83A JUMP JUMPDEST ADD MLOAD PUSH1 0x0 NOT PUSH1 0xF8 DUP5 PUSH1 0x3 SHL AND SHR NOT AND SWAP1 SSTORE DUP7 DUP1 DUP1 PUSH2 0x12D2 JUMP JUMPDEST DUP2 DUP2 ADD MLOAD DUP4 SSTORE PUSH1 0x20 SWAP5 DUP6 ADD SWAP5 PUSH1 0x1 SWAP1 SWAP4 ADD SWAP3 SWAP1 SWAP2 ADD SWAP1 PUSH2 0x12B7 JUMP JUMPDEST PUSH2 0x133F SWAP1 DUP9 PUSH1 0x0 MSTORE PUSH1 0x20 PUSH1 0x0 KECCAK256 PUSH1 0x1F DUP6 ADD PUSH1 0x5 SHR DUP2 ADD SWAP2 PUSH1 0x20 DUP7 LT PUSH2 0x47E JUMPI PUSH1 0x1F ADD PUSH1 0x5 SHR ADD SWAP1 PUSH2 0x155A JUMP JUMPDEST DUP8 PUSH2 0x80E JUMP JUMPDEST PUSH4 0x4E487B71 PUSH1 0xE0 SHL PUSH1 0x0 MSTORE PUSH1 0x11 PUSH1 0x4 MSTORE PUSH1 0x24 PUSH1 0x0 REVERT JUMPDEST CALLVALUE PUSH2 0x1E6 JUMPI PUSH1 0x0 CALLDATASIZE PUSH1 0x3 NOT ADD SLT PUSH2 0x1E6 JUMPI PUSH1 0x20 SWAP1 PUSH1 0x1 SLOAD DUP2 MSTORE RETURN JUMPDEST PUSH1 0x20 DUP2 ADD SWAP1 DUP2 LT PUSH1 0x1 PUSH1 0x1 PUSH1 0x40 SHL SUB DUP3 GT OR PUSH2 0x488 JUMPI PUSH1 0x40 MSTORE JUMP JUMPDEST SWAP1 PUSH1 0x1F DUP1 NOT SWAP2 ADD AND DUP2 ADD SWAP1 DUP2 LT PUSH1 0x1 PUSH1 0x1 PUSH1 0x40 SHL SUB DUP3 GT OR PUSH2 0x488 JUMPI PUSH1 0x40 MSTORE JUMP JUMPDEST DUP2 PUSH1 0x1F DUP3 ADD SLT ISZERO PUSH2 0x1E6 JUMPI DUP1 CALLDATALOAD SWAP1 PUSH1 0x1 PUSH1 0x1 PUSH1 0x40 SHL SUB DUP3 GT PUSH2 0x488 JUMPI PUSH1 0x40 MLOAD SWAP3 PUSH2 0x13E6 PUSH1 0x1F DUP5 ADD PUSH1 0x1F NOT AND PUSH1 0x20 ADD DUP6 PUSH2 0x1391 JUMP JUMPDEST DUP3 DUP5 MSTORE PUSH1 0x20 DUP4 DUP4 ADD ADD GT PUSH2 0x1E6 JUMPI DUP2 PUSH1 0x0 SWAP3 PUSH1 0x20 DUP1 SWAP4 ADD DUP4 DUP7 ADD CALLDATACOPY DUP4 ADD ADD MSTORE SWAP1 JUMP JUMPDEST SWAP1 PUSH1 0x40 PUSH1 0x3 NOT DUP4 ADD SLT PUSH2 0x1E6 JUMPI PUSH1 0x4 CALLDATALOAD SWAP2 PUSH1 0x24 CALLDATALOAD SWAP1 PUSH1 0x1 PUSH1 0x1 PUSH1 0x40 SHL SUB DUP3 GT PUSH2 0x1E6 JUMPI PUSH2 0x1437 SWAP2 PUSH1 0x4 ADD PUSH2 0x13B2 JUMP JUMPDEST SWAP1 JUMP JUMPDEST SWAP1 PUSH1 0x1 DUP3 DUP2 SHR SWAP3 AND DUP1 ISZERO PUSH2 0x146A JUMPI JUMPDEST PUSH1 0x20 DUP4 LT EQ PUSH2 0x1454 JUMPI JUMP JUMPDEST PUSH4 0x4E487B71 PUSH1 0xE0 SHL PUSH1 0x0 MSTORE PUSH1 0x22 PUSH1 0x4 MSTORE PUSH1 0x24 PUSH1 0x0 REVERT JUMPDEST SWAP2 PUSH1 0x7F AND SWAP2 PUSH2 0x1449 JUMP JUMPDEST SWAP1 PUSH1 0x40 MLOAD SWAP2 DUP3 PUSH1 0x0 DUP3 SLOAD SWAP3 PUSH2 0x1488 DUP5 PUSH2 0x143A JUMP JUMPDEST SWAP1 DUP2 DUP5 MSTORE PUSH1 0x1 SWAP5 DUP6 DUP2 AND SWAP1 DUP2 PUSH1 0x0 EQ PUSH2 0x14F7 JUMPI POP PUSH1 0x1 EQ PUSH2 0x14B4 JUMPI JUMPDEST POP POP PUSH2 0x14B2 SWAP3 POP SUB DUP4 PUSH2 0x1391 JUMP JUMPDEST JUMP JUMPDEST SWAP1 SWAP4 SWAP2 POP PUSH1 0x0 MSTORE PUSH1 0x20 SWAP1 DUP2 PUSH1 0x0 KECCAK256 SWAP4 PUSH1 0x0 SWAP2 JUMPDEST DUP2 DUP4 LT PUSH2 0x14DF JUMPI POP POP PUSH2 0x14B2 SWAP4 POP DUP3 ADD ADD CODESIZE DUP1 PUSH2 0x14A4 JUMP JUMPDEST DUP6 SLOAD DUP9 DUP5 ADD DUP6 ADD MSTORE SWAP5 DUP6 ADD SWAP5 DUP8 SWAP5 POP SWAP2 DUP4 ADD SWAP2 PUSH2 0x14C7 JUMP JUMPDEST SWAP2 POP POP PUSH2 0x14B2 SWAP5 POP PUSH1 0x20 SWAP3 POP PUSH1 0xFF NOT AND DUP3 DUP5 ADD MSTORE ISZERO ISZERO PUSH1 0x5 SHL DUP3 ADD ADD CODESIZE DUP1 PUSH2 0x14A4 JUMP JUMPDEST SWAP2 SWAP1 DUP3 MLOAD SWAP3 DUP4 DUP3 MSTORE PUSH1 0x0 JUMPDEST DUP5 DUP2 LT PUSH2 0x1546 JUMPI POP POP DUP3 PUSH1 0x0 PUSH1 0x20 DUP1 SWAP5 SWAP6 DUP5 ADD ADD MSTORE PUSH1 0x1F DUP1 NOT SWAP2 ADD AND ADD ADD SWAP1 JUMP JUMPDEST PUSH1 0x20 DUP2 DUP4 ADD DUP2 ADD MLOAD DUP5 DUP4 ADD DUP3 ADD MSTORE ADD PUSH2 0x1525 JUMP JUMPDEST DUP2 DUP2 LT PUSH2 0x1565 JUMPI POP POP JUMP JUMPDEST PUSH1 0x0 DUP2 SSTORE PUSH1 0x1 ADD PUSH2 0x155A JUMP JUMPDEST ISZERO PUSH2 0x1578 JUMPI JUMP JUMPDEST PUSH1 0x40 MLOAD PUSH3 0x461BCD PUSH1 0xE5 SHL DUP2 MSTORE PUSH1 0x20 PUSH1 0x4 DUP3 ADD MSTORE PUSH1 0x16 PUSH1 0x24 DUP3 ADD MSTORE PUSH22 0x44656D616E6420646F6573206E6F7420657869737421 PUSH1 0x50 SHL PUSH1 0x44 DUP3 ADD MSTORE PUSH1 0x64 SWAP1 REVERT JUMPDEST PUSH2 0x15C0 DUP2 SLOAD PUSH2 0x143A JUMP JUMPDEST SWAP1 DUP2 PUSH2 0x15CA JUMPI POP POP JUMP JUMPDEST DUP2 PUSH1 0x1F PUSH1 0x0 SWAP4 GT PUSH1 0x1 EQ PUSH2 0x15DC JUMPI POP SSTORE JUMP JUMPDEST SWAP1 DUP1 DUP4 SWAP2 DUP3 MSTORE PUSH2 0x15FB PUSH1 0x1F PUSH1 0x20 DUP5 KECCAK256 SWAP5 ADD PUSH1 0x5 SHR DUP5 ADD PUSH1 0x1 DUP6 ADD PUSH2 0x155A JUMP JUMPDEST SSTORE SSTORE JUMP INVALID LOG2 PUSH5 0x6970667358 0x22 SLT KECCAK256 0xCC 0xB9 0xF9 0xF7 DUP16 0x2A REVERT PUSH19 0xFF2238D6C440A9EE93570814B4DCD8FE105C4A KECCAK256 0x49 DUP11 SIGNEXTEND SELFBALANCE PUSH5 0x736F6C6343 STOP ADDMOD SLT STOP CALLER "},"methodIdentifiers":{"approveLab(uint256,string)":"9818268e","approvePharmacy(uint256,string)":"9a2fe666","createDemand(string,string,string,string,string,string,string,string)":"5575e661","deleteDemand(uint256)":"f1bf95fb","demandCount()":"03b2bf8e","demands(uint256)":"f62de828"}}}}}