{
  "_format": "hh-sol-artifact-1",
  "contractName": "EHealthTransaction",
  "sourceName": "contracts/EHealthTransaction.sol",
  "abi": [
    {
      "anonymous": false,
      "inputs": [
        {
          "indexed": false,
          "internalType": "uint256",
          "name": "demandId",
          "type": "uint256"
        },
        {
          "indexed": false,
          "internalType": "string",
          "name": "hospitalName",
          "type": "string"
        },
        {
          "indexed": false,
          "internalType": "string",
          "name": "patientName",
          "type": "string"
        }
      ],
      "name": "DemandCreated",
      "type": "event"
    },
    {
      "anonymous": false,
      "inputs": [
        {
          "indexed": false,
          "internalType": "uint256",
          "name": "demandId",
          "type": "uint256"
        }
      ],
      "name": "DemandDeleted",
      "type": "event"
    },
    {
      "anonymous": false,
      "inputs": [
        {
          "indexed": false,
          "internalType": "uint256",
          "name": "demandId",
          "type": "uint256"
        },
        {
          "indexed": false,
          "internalType": "string",
          "name": "pathologyReportHash",
          "type": "string"
        }
      ],
      "name": "LabApproved",
      "type": "event"
    },
    {
      "anonymous": false,
      "inputs": [
        {
          "indexed": false,
          "internalType": "uint256",
          "name": "demandId",
          "type": "uint256"
        },
        {
          "indexed": false,
          "internalType": "string",
          "name": "pharmacyReportHash",
          "type": "string"
        }
      ],
      "name": "PharmacyApproved",
      "type": "event"
    },
    {
      "inputs": [
        {
          "internalType": "uint256",
          "name": "_demandId",
          "type": "uint256"
        },
        {
          "internalType": "string",
          "name": "_fileHash",
          "type": "string"
        }
      ],
      "name": "approveLab",
      "outputs": [],
      "stateMutability": "nonpayable",
      "type": "function"
    },
    {
      "inputs": [
        {
          "internalType": "uint256",
          "name": "_demandId",
          "type": "uint256"
        },
        {
          "internalType": "string",
          "name": "_fileHash",
          "type": "string"
        }
      ],
      "name": "approvePharmacy",
      "outputs": [],
      "stateMutability": "nonpayable",
      "type": "function"
    },
    {
      "inputs": [
        {
          "internalType": "string",
          "name": "_hospitalName",
          "type": "string"
        },
        {
          "internalType": "string",
          "name": "_patientName",
          "type": "string"
        },
        {
          "internalType": "string",
          "name": "_dateofbirth",
          "type": "string"
        },
        {
          "internalType": "string",
          "name": "_age",
          "type": "string"
        },
        {
          "internalType": "string",
          "name": "_pharmacyUsername",
          "type": "string"
        },
        {
          "internalType": "string",
          "name": "_pathologyLabUsername",
          "type": "string"
        },
        {
          "internalType": "string",
          "name": "_prescribedMedicines",
          "type": "string"
        },
        {
          "internalType": "string",
          "name": "_labTests",
          "type": "string"
        }
      ],
      "name": "createDemand",
      "outputs": [],
      "stateMutability": "nonpayable",
      "type": "function"
    },
    {
      "inputs": [
        {
          "internalType": "uint256",
          "name": "_demandId",
          "type": "uint256"
        }
      ],
      "name": "deleteDemand",
      "outputs": [],
      "stateMutability": "nonpayable",
      "type": "function"
    },
    {
      "inputs": [],
      "name": "demandCount",
      "outputs": [
        {
          "internalType": "uint256",
          "name": "",
          "type": "uint256"
        }
      ],
      "stateMutability": "view",
      "type": "function"
    },
    {
      "inputs": [
        {
          "internalType": "uint256",
          "name": "",
          "type": "uint256"
        }
      ],
      "name": "demands",
      "outputs": [
        {
          "internalType": "string",
          "name": "hospitalName",
          "type": "string"
        },
        {
          "internalType": "string",
          "name": "patientName",
          "type": "string"
        },
        {
          "internalType": "string",
          "name": "dateofbirth",
          "type": "string"
        },
        {
          "internalType": "string",
          "name": "age",
          "type": "string"
        },
        {
          "internalType": "string",
          "name": "pharmacyUsername",
          "type": "string"
        },
        {
          "internalType": "string",
          "name": "pathologyLabUsername",
          "type": "string"
        },
        {
          "internalType": "string",
          "name": "prescribedMedicines",
          "type": "string"
        },
        {
          "internalType": "string",
          "name": "labTests",
          "type": "string"
        },
        {
          "internalType": "bool",
          "name": "isPharmacyApproved",
          "type": "bool"
        },
        {
          "internalType": "bool",
          "name": "isLabApproved",
          "type": "bool"
        },
        {
          "internalType": "string",
          "name": "pharmacyReportHash",
          "type": "string"
        },
        {
          "internalType": "string",
          "name": "pathologyReportHash",
          "type": "string"
        },
        {
          "internalType": "bool",
          "name": "exists",
          "type": "bool"
        }
      ],
      "stateMutability": "view",
      "type": "function"
    }
  ],
  "bytecode": "0x6080806040523461001657611635908161001c8239f35b600080fdfe608080604052600436101561001357600080fd5b60003560e01c90816303b2bf8e1461135b575080635575e661146106225780639818268e1461049e5780639a2fe666146102d4578063f1bf95fb146101eb5763f62de8281461006157600080fd5b346101e65760203660031901126101e6576004356000526000602052604060002061008b81611474565b61009760018301611474565b916100a460028201611474565b906100b160038201611474565b6100bd60048301611474565b6100c960058401611474565b6100d560068501611474565b6100e160078601611474565b91600886015493600987016100f590611474565b95610102600a8901611474565b97600b015460ff16986040519b8c9b8c6101a08091528d016101239161151a565b8c810360208e01526101349161151a565b8b810360408d01526101459161151a565b8a810360608c01526101569161151a565b89810360808b01526101679161151a565b88810360a08a01526101789161151a565b87810360c08901526101899161151a565b86810360e088015261019a9161151a565b9060ff8116151561010087015260081c60ff1615156101208601528481036101408601526101c79161151a565b8381036101608501526101d99161151a565b9015156101808301520390f35b600080fd5b346101e65760203660031901126101e6577f1db773fe7b06efab51c674941614102d157a466a118cc9cf6256665b3be96ec46020600435806000526000825261023e60ff600b6040600020015416611571565b80600052600082526000600b60408220610257816115b6565b610263600182016115b6565b61026f600282016115b6565b61027b600382016115b6565b610287600482016115b6565b610293600582016115b6565b61029f600682016115b6565b6102ab600782016115b6565b8260088201556102bd600982016115b6565b6102c9600a82016115b6565b0155604051908152a1005b346101e6576102e236611408565b90806000526020916000835261030260ff600b6040600020015416611571565b81600052600083526040600020600960088201916001928360ff1982541617905501908251906001600160401b03821161048857610340835461143a565b601f811161044d575b5085601f83116001146103c2579180806103b295937f509e0d561bd3b1cce99c775f2bba803d803011f9a476f578878fa1eae175f1c2999897956000936103b7575b501b916000199060031b1c19161790555b604080519485948552840152604083019061151a565b0390a1005b86015192508a61038b565b601f9291921982169084600052876000209160005b81811061043857509183916103b296947f509e0d561bd3b1cce99c775f2bba803d803011f9a476f578878fa1eae175f1c29a999896941061041f575b5050811b01905561039c565b85015160001960f88460031b161c191690558880610413565b878301518455928501929189019189016103d7565b610478908460005287600020601f850160051c81019189861061047e575b601f0160051c019061155a565b86610349565b909150819061046b565b634e487b7160e01b600052604160045260246000fd5b346101e6576104ac36611408565b9080600052602090600082526104cc60ff600b6040600020015416611571565b8060005260008252600a60406000206008810161010061ff0019825416179055019280516001600160401b03811161048857610508855461143a565b601f81116105f2575b5083601f82116001146105835794816103b293927f530455f222b8bb0f4ebe2433ce880e5e426ced50ab5b2f0c9cbd72d278828a7097600091610578575b508160011b916000199060031b1c1916179055604080519485948552840152604083019061151a565b90508301518861054f565b601f1982169086600052856000209160005b8181106105db5750927f530455f222b8bb0f4ebe2433ce880e5e426ced50ab5b2f0c9cbd72d278828a709792600192826103b297961061041f575050811b01905561039c565b919287600181928689015181550194019201610595565b61061c908660005285600020601f840160051c81019187851061047e57601f0160051c019061155a565b85610511565b346101e6576101003660031901126101e6576004356001600160401b0381116101e6576106539036906004016113b2565b6024356001600160401b0381116101e6576106729036906004016113b2565b906044356001600160401b0381116101e6576106929036906004016113b2565b916064356001600160401b0381116101e6576106b29036906004016113b2565b926084356001600160401b0381116101e6576106d29036906004016113b2565b60a4356001600160401b0381116101e6576106f19036906004016113b2565b60c4356001600160401b0381116101e6576107109036906004016113b2565b60e4356001600160401b0381116101e65761072f9036906004016113b2565b91600154936000198514611345576001850160015560405198896101a08101106001600160401b036101a08c011117610488576001966101a08b01604052898b528860208c015260408b015260608a0152608089015260a088015260c087015260e0860152600061010086015260006101208601526040516107b081611376565b600081526101408601526040516107c681611376565b600081526101608601528161018086015201600052600060205260406000209280518051906001600160401b038211610488578190610805875461143a565b601f8111611313575b50602090601f83116001146112a75760009261129c575b50508160011b916000199060031b1c19161784555b60208101518051906001600160401b03821161048857819061085f600188015461143a565b601f8111611267575b50602090601f83116001146111f5576000926111ea575b50508160011b916000199060031b1c19161760018501555b60408101518051906001600160401b0382116104885781906108bc600288015461143a565b601f81116111b5575b50602090601f831160011461114357600092611138575b50508160011b916000199060031b1c19161760028501555b60608101518051906001600160401b038211610488578190610919600388015461143a565b601f8111611103575b50602090601f831160011461109157600092611086575b50508160011b916000199060031b1c19161760038501555b60808101518051906001600160401b038211610488578190610976600488015461143a565b601f8111611051575b50602090601f8311600114610fdf57600092610fd4575b50508160011b916000199060031b1c19161760048501555b60a08101518051906001600160401b0382116104885781906109d3600588015461143a565b601f8111610f9f575b50602090601f8311600114610f2d57600092610f22575b50508160011b916000199060031b1c19161760058501555b60c08101518051906001600160401b038211610488578190610a30600688015461143a565b601f8111610eed575b50602090601f8311600114610e7b57600092610e70575b50508160011b916000199060031b1c19161760068501555b60e08101518051906001600160401b038211610488578190610a8d600788015461143a565b601f8111610e3b575b50602090601f8311600114610dc957600092610dbe575b50508160011b916000199060031b1c19161760078501555b60088401610ae66101008301511515829060ff801983541691151516179055565b610120820151815461ff00191690151560081b61ff00161790556101408101518051906001600160401b038211610488578190610b26600988015461143a565b601f8111610d89575b50602090601f8311600114610d1757600092610d0c575b50508160011b916000199060031b1c19161760098501555b6101608101518051906001600160401b03821161048857610b82600a87015461143a565b601f8111610cd7575b50602090601f8311600114610c3c57610c0093837face89e3f00bbd92defd5cdde93b9b5ba72aa99e0e4d76ebbdf6e08ac9feefa9c9894600b9461018094600092610c31575b50508160011b916000199060031b1c191617600a8501555b0151151591019060ff801983541691151516179055565b6103b260015491610c23604051948594855260606020860152606085019061151a565b90838203604085015261151a565b015190508a80610bd1565b90600a870160005260206000209160005b601f1985168110610cbf575093600184600b9461018094610c00987face89e3f00bbd92defd5cdde93b9b5ba72aa99e0e4d76ebbdf6e08ac9feefa9c9c98601f19811610610ca6575b505050811b01600a850155610be9565b015160001960f88460031b161c191690558a8080610c96565b91926020600181928685015181550194019201610c4d565b610d0690600a88016000526020600020601f850160051c8101916020861061047e57601f0160051c019061155a565b86610b8b565b015190508680610b46565b9250600987016000526020600020906000935b601f1984168510610d6e576001945083601f19811610610d55575b505050811b016009850155610b5e565b015160001960f88460031b161c19169055868080610d45565b81810151835560209485019460019093019290910190610d2a565b610db890600989016000526020600020601f850160051c8101916020861061047e57601f0160051c019061155a565b87610b2f565b015190508680610aad565b9250600787016000526020600020906000935b601f1984168510610e20576001945083601f19811610610e07575b505050811b016007850155610ac5565b015160001960f88460031b161c19169055868080610df7565b81810151835560209485019460019093019290910190610ddc565b610e6a90600789016000526020600020601f850160051c8101916020861061047e57601f0160051c019061155a565b87610a96565b015190508680610a50565b9250600687016000526020600020906000935b601f1984168510610ed2576001945083601f19811610610eb9575b505050811b016006850155610a68565b015160001960f88460031b161c19169055868080610ea9565b81810151835560209485019460019093019290910190610e8e565b610f1c90600689016000526020600020601f850160051c8101916020861061047e57601f0160051c019061155a565b87610a39565b0151905086806109f3565b9250600587016000526020600020906000935b601f1984168510610f84576001945083601f19811610610f6b575b505050811b016005850155610a0b565b015160001960f88460031b161c19169055868080610f5b565b81810151835560209485019460019093019290910190610f40565b610fce90600589016000526020600020601f850160051c8101916020861061047e57601f0160051c019061155a565b876109dc565b015190508680610996565b9250600487016000526020600020906000935b601f1984168510611036576001945083601f1981161061101d575b505050811b0160048501556109ae565b015160001960f88460031b161c1916905586808061100d565b81810151835560209485019460019093019290910190610ff2565b61108090600489016000526020600020601f850160051c8101916020861061047e57601f0160051c019061155a565b8761097f565b015190508680610939565b9250600387016000526020600020906000935b601f19841685106110e8576001945083601f198116106110cf575b505050811b016003850155610951565b015160001960f88460031b161c191690558680806110bf565b818101518355602094850194600190930192909101906110a4565b61113290600389016000526020600020601f850160051c8101916020861061047e57601f0160051c019061155a565b87610922565b0151905086806108dc565b9250600287016000526020600020906000935b601f198416851061119a576001945083601f19811610611181575b505050811b0160028501556108f4565b015160001960f88460031b161c19169055868080611171565b81810151835560209485019460019093019290910190611156565b6111e490600289016000526020600020601f850160051c8101916020861061047e57601f0160051c019061155a565b876108c5565b01519050868061087f565b9250600187016000526020600020906000935b601f198416851061124c576001945083601f19811610611233575b505050811b016001850155610897565b015160001960f88460031b161c19169055868080611223565b81810151835560209485019460019093019290910190611208565b61129690600189016000526020600020601f850160051c8101916020861061047e57601f0160051c019061155a565b87610868565b015190508680610825565b9250866000526020600020906000935b601f19841685106112f8576001945083601f198116106112df575b505050811b01845561083a565b015160001960f88460031b161c191690558680806112d2565b818101518355602094850194600190930192909101906112b7565b61133f90886000526020600020601f850160051c8101916020861061047e57601f0160051c019061155a565b8761080e565b634e487b7160e01b600052601160045260246000fd5b346101e65760003660031901126101e6576020906001548152f35b602081019081106001600160401b0382111761048857604052565b90601f801991011681019081106001600160401b0382111761048857604052565b81601f820112156101e6578035906001600160401b03821161048857604051926113e6601f8401601f191660200185611391565b828452602083830101116101e657816000926020809301838601378301015290565b9060406003198301126101e65760043591602435906001600160401b0382116101e657611437916004016113b2565b90565b90600182811c9216801561146a575b602083101461145457565b634e487b7160e01b600052602260045260246000fd5b91607f1691611449565b90604051918260008254926114888461143a565b9081845260019485811690816000146114f757506001146114b4575b50506114b292500383611391565b565b9093915060005260209081600020936000915b8183106114df5750506114b2935082010138806114a4565b855488840185015294850194879450918301916114c7565b9150506114b294506020925060ff191682840152151560051b82010138806114a4565b919082519283825260005b848110611546575050826000602080949584010152601f8019910116010190565b602081830181015184830182015201611525565b818110611565575050565b6000815560010161155a565b1561157857565b60405162461bcd60e51b815260206004820152601660248201527544656d616e6420646f6573206e6f742065786973742160501b6044820152606490fd5b6115c0815461143a565b90816115ca575050565b81601f600093116001146115dc575055565b9080839182526115fb601f60208420940160051c84016001850161155a565b555556fea2646970667358221220ccb9f9f78f2afd72ff2238d6c440a9ee93570814b4dcd8fe105c4a20498a0b4764736f6c63430008120033",
  "linkReferences": {},
  "deployedLinkReferences": {}
}